Michelleber6118Calhoun   Ortiz     010492975372094Nissan King C1990
Hopkinsmout1222Martin    Williams  031693873721028Ford Aerostar1991
Jenniferber6945Leach     Patel     020590990079094Chevrolet Sil1992
Brittanymou0asdBell      Jacobs    070892729218035Mitsubishi Ec1990
Mooreberg  3867                    021893163012069Hyundai Accen1990
New David  8398Holt      Griffin   111693584140039Dodge Ram Van1993
West Johnsh1041Baker     Lee       040192829147046Dodge Neon   1991
South Tracy4194Miller    Schmidt   081093398211061Hyundai Santa1992
East Michel0514Smith     Harrison  110891958140100Volvo C70    1994
South Timot5376Jones     Mitchell  110593404210071Kia Rondo    8270
Catherinevi6611Duarte    Moore     020191351663062BMW 3 Series 1990
Kimberlypor1595Buchanan  Price     081792594195022Ford Explorer1993
West Kelly 1202Stokes    Bowman    072593375295037BMW X3       1992
Baldwinland9634Becker    Parker    010595000abc049Dodge Intrepi1991
Robertside 3570Dennis    Smith     011795713482094Bentley Mulsa1993
Patelport  3479Walsh     Anderson  090891001868083Chevrolet Sil1990
Richardside8944Macias    Williams  060291168891000Mitsubishi Mi1995
Westburgh  2127Jackson   Boyd      080590408619087Hyundai Elant1994
Stonemouth 1603Evans     Morales   111794814277035Isuzu Hombre 1994
New Michael5225Gentry    Aguirre   060292066575012Mercury Mount1994
Michelletow2974Harper    Perkins   072791659105041INFINITI QX500000
New Tiffany3343Owens     Lynch     112791407548048Rolls-Royce P1994
West Colinf7827Conner    Romero    080493746429000Ford E150 Sup1992
Johnsontown2864Thomas    Anderson  060591753060059Jeep Wrangler1993
Portermouth0762Hernandez Blair     100393394884069Mercury Grand1993
Dianamouth 8602Moran     Simon     101395168568056Ford F350 Sup1992
New Gloria 3528Parker    Williams  020690247278031Chrysler Town1993
West Jasont1359Perry     Love      asdfga415121066Cadillac CTS 1994
East Lindsa1431Parker    Hanna     010594925366075Volkswagen Go1991
Johnsonburg2267Pitts     Cortez    072690206102007Ford Econolin1991
West Adrien4266Cole      Leonard   011491498808002Volvo XC60   1992
Kathleenche6119Cardenas  Martinez  060994725547003Mercedes-Benz1994
Stewartches4772Nguyen    Knight    082491395239060GMC 1500 Club1994
North Jonat7092Miller    Cannon    091394875828044Chevrolet Equ1993
West Michae9722Anderson  Robinson  102895912519066BMW 7 Series 1993
Raymondches8877Evans     Rodriguez 072292048048049Chevrolet Lum1993
South Joell6262Atkins    Glass     122293654284055Ram 2500 Mega1993
Edwardton  4767Cantrell  Miller    041992131875093Dodge Ram 2501990
South Micha1252Meyers    Santos    090593879033078Cadillac DTS 1990
Sarahmouth 5338Boyle     Vega      042892155683040Ford Expediti1995
Port Theres6116Barnett   Johnson   052592000000xyzMAZDA CX-9   1991
North Isaia6142Knight    Wolf      011991091432018Ford F250 Reg1990
Lake Joshua2913Franklin  Brown     100394191998089Lincoln MKC  1994
Lake Christ3461Lin       Brown     021794351502093BMW X3       1990
West Lindsa7063Brown     Powell    012395114199042Aston Martin 1992
Johnsonside4456Rodriguez Anderson  112894083511086Chevrolet Exp1993
West Emilyf4027Charles   Porter    060191498371010Ford Taurus  1995
South Antho3689Chambers  Austin    091890214824092Chevrolet Cor1991
East Patric2718Black     Hale      050194589565068Cadillac Flee1994
Shelleyfort1068Kelley    Humphrey  090891536779080Chevrolet Exp1992
South Adam 1952Leonard   Lane      042392757598065Volkswagen Be1994
Barnesbury 0323Herrera   Guerra    091991012114086Saturn L-Seri1993
Nelsonton  3178Mcmillan  Foster    042190966449008GMC Sierra 251993
Jamesview  7911Hart      Ward      072391837095026Mercedes-Benz1991
New Amyton 7062Kaufman   Flores    072890015512013Volkswagen Je1991
Lake Stacy 8956Reed      Pruitt    112895078706013BMW X5 M     1993
East Samant6671Stein     Turner    112793560915054Kia Forte    1993
Smithfurt  0944Williams  Dillon    022693837140077Chevrolet Ave1995
New Jonatho2106Woods     Mason     031191620468085HUMMER H2    1995
           6073Stone     Weaver    062493096226062Nissan Fronti1993
Aaronland  9374Sanders   Castaneda 040494684011054Honda Fit    1990
North Misty5666Graham              110095494874048Cadillac SRX 0000
South Kylem4750Simon     Blankenshi022791431977010Audi Cabriole1990
Bassshire  7149Miles     Sandoval  556471947980092Chevrolet Mal1992
Lake Caroli9147Hayes     Jones     022895648782000Dodge Ram 2501992
South Mitch6229Graham    Jordan    092394383183057Mitsubishi Mo1993
East Hollyh5321Barker    Cooper    050291363714003Hyundai XG3501991
Danielsview9404Thomas    Brown     082292271665002Toyota Sienna1991
Reyestown  4572Torres    Williams  122290823658035Volvo 940    1991
Lisachester9203Bruce               120993493540062Buick Lucerne1992
Karenmouth 3611Bush      Zuniga    060493827440038Subaru Outbac1995
South Jerry5291Chang     Snyder    asdfga679989027Subaru Imprez1995
South Patri0651Hughes    Scott     031895945400016Honda CR-Z   1991
New Garymou4782Jones     Henderson 050895366566019Subaru Baja  1992
North Markm1762Garcia    Green     012794718363039Dodge Durango1992
West Roybur0885Coleman   Heath     080693408848027Chevrolet Sil1993
Karenshire 4077Powell    Reynolds  012390337238053Volkswagen Ti1993
Port Stepha5170Barrett   Brown     060093692467097Dodge Dakota 1990
Deniseburgh4327Young     Jackson   011594631359032Saab 5-Sep   1991
North Kelly0asdChambers  Marquez   040990258503093Jaguar XF    1990
Jeffreyhave5734Garcia    Green     120792764446050Chevrolet Sub1995
East Patric9818Fisher    Crosby    092293982851010Dodge Neon   1995
South Alexa9751Beltran   Ho        011491558133031Ford Econolin1991
New Pamela 4035Jones     Rogers    112195010424040Maybach 62   1992
New Cindy  3120Johnson   Hahn      041891049003008Chevrolet Ava1993
New Susan  9710Olson     Little    081392340357047Volkswagen To1991
East Luis  0646Schwartz  Saunders  081090071306077Lotus Exige S1990
Katherinesi0240Edwards   Lopez     041695188207062Chevrolet Sil1990
Patrickberg6014Mcclure   Harvey    122495185513007Mercury Sable1994
West Matthe1280Atkinson  Terry     021992121748072Mercedes-Benz1994
           7781Ramirez   May       082294029020068Chevrolet Col1994
Lake Tiffan7786Burch     Stone     070992318524010Ford F150 Reg1994
Port Matthe1813Morris    Wright    021291065395032Toyota Coroll1993
New William4090Delacruz  Mann      051092997204034Mercedes-Benz1990
North Amy  1970Mccormick Ryan      121094000000023GMC Savana 251994
South James7147Malone    Torres    092395922895077BMW Z3       1994
Lake Timoth9269Jennings  Kirk      031994480379020Cadillac STS 1995
           0000Ballard   Watkins   050393804453037MAZDA CX-3   1994
Lake Cindy 6027Conway    Ritter    102192215818099Cadillac Esca1994
West Diane 5531Gonzales  Robinson  012492307399081Ram 2500 Crew1992
Michelleber7868Sanchez   Cochran   041390687827022Honda Passpor1990
Scottboroug1508Spears    Jones     021095385568062Ford F350 Sup1995
North Rober3730Vargas    Martin    021290953442000Acura RDX    1990
Vasquezton 5858Weaver    Arias     050095658158025BMW 7 Series 1991
Johnsonvill5312Myers     Gray      110593442392087Ford Transit 1991
Mossmouth  7322Ramos     Davis     050791948476071GMC Safari Ca1995
Millerside 6689Burgess   Cordova   062891564734016MAZDA CX-7   1995
East Michel5095Hernandez Forbes    072690603109017Chevrolet Cru1994
West Andrew4847          White     102093112601086Kia Sorento  1994
North Victo4550Morrow    Kennedy   031594034393084Plymouth Voya1994
Sparksfort 1025Smith     Black     050590829183007Volkswagen Go1995
Lake George3515Riddle    Woodard   071992085553000Mercedes-Benz1990
Lake Alexat0869Spencer   Parks     120193010473037Mercedes-Benz1994
Johnsonboro4938Shepherd  Brown     042694731356034Mercury Couga1991
New Ryan   0016Fritz     Davis     050792288359016Ford Fiesta  1993
West Robinb2111Callahan  Acevedo   071095596402055Dodge Ram 3501994
Kellyshire 3865Taylor    Morris    101291484061000Volvo S80    1991
Port Jo    8116Holmes    Waters    101994993122032GMC Sierra 351994
New Bettymo8174Morse     Garcia    041295482513078Chrysler Cirr1992
Susanton   0339Skinner   Gomez     031790790749079Nissan Fronti1990
Rojasmouth 7073Beard     Roberson  091593206614xyzBuick Enclave1994
West Ricard3025Hernandez Mcbride   111291619010065GMC Terrain  1991
Michelletow7351Kelley    Weeks     062393382385082Ford F350 Reg1992
Christopher5838Walker    Richards  061690590144031Toyota Land C1990
Lisaport   8073Rose      Lee       062291866419004Audi S4      1993
Alvarezhave8993Shelton   Mejia     030490804512056BMW X6       1992
Summersbury8780Burch     Olson     072095446666016Hyundai Accen1995
Marcberg   1184Marsh               090391796621024Ford Expediti1991
East Anthon7512Nguyen    Rivera    041494005885016Pontiac Trans1995
Barnettmout5170Jennings  George    041691849770066Audi A3      1992
Wrightborou9136Boone     Mcintyre  121990399785056Plymouth Voya1992
Smithboroug0707Phillips  Foster    102191203980077Dodge Ramchar1993
New Walter 0033Murphy    Stafford  051794823877032MINI Countrym1994
East John  8294Davis     Stewart   041893786278073Chevrolet Sub1991
           6204Parker    Schmidt   020293343482023BMW M5       1991
Hensleytown7647Lara      Foster    041992313303072Ford Taurus  1990
South Thoma3654Williams  Sutton    112094011594097MINI Converti1990
Darrylstad 1216Scott     Davidson  081792015703095Audi A4      1992
Khanbury   5545Newman    Heath     070394282349068MAZDA CX-5   1993
Emmamouth  4248Johnson   Smith     060690633810085Jaguar XJ    1993
New Dakota 8652Lane      Day       030890973180088Ford Transit 1990
South Rober4231Landry    Banks     010395817758087Chevrolet Sil1994
Melissatown7210Nicholson Stevens   050192776575031Lincoln Navig1994
Rebeccaboro5803Ruiz      Kline     091675093778076Dodge Viper  1990
Annafurt   3676Rodriguez Villarreal021093000000093Hyundai Santa1990
Edwardsches4950Everett   Vasquez   010093692281014Dodge Ram Wag1991
New Katiemo5387Nguyen    Dudley    010990144700045BMW Z4       1994
South Rebec3982Dillon    Nguyen    120795729301003Ford E350 Sup1993
East Christ8015Ryan      Jensen    101391237260059Saturn S-Seri1990
Buckburgh  8689Gonzalez  Waters    061091634644081Saab 9000    1990
Matthewsshi8672Ward      Mendoza   110292920631016Nissan NV25001992
Danielfort 7555Harris    Smith     112191367787044Subaru Imprez1993
Mendozafurt8489Trujillo  Velazquez 080591490076044Audi Q5      1995
Justinport 1788Perez     Williamson120191059368043Jaguar XJ    1994
South Sheil2906          Thomas    111093424843066Audi A3      1994
Joyceshire 9184Miller    Rangel    102793985260000smart fortwo 1991
Lake Robert2831Wilson    Green     120293983880062Ford Crown Vi1995
Brendaborou7493Johnson   Carter    022891288288042Suzuki Equato1994
Port Ronald7893Williams  Brown     121792588276066Lincoln MKX  1993
Lake Elizab2832Davies    Roberts   120190702966058Chevrolet Spa0000
Gomezmouth 9377Meza      Barnes    010090350070068Pontiac Vibe 1992
Kathyton   5136StephensonStewart   111995922903092Mercedes-Benz1995
           8184Wilson    Smith     050993352213079Ford Escape  1990
Castillobur1380Rodgers   Harvey    asdfga448618053Dodge Ram 1501991
Snowfurt   2337Bradshaw  Jimenez   031893518910069Cadillac DeVi1992
Shermanburg6510Henson    Meza      012693439172068Volkswagen GT1992
Jeremyport 7785Knight    Perry     082293271441094Bentley Azure1993
East Rachel9964Mccoy     Bentley   100594946006071MAZDA MX-5 Mi1991
South Miche8602Rodriguez Jackson   080195090125033GMC Sierra 251992
East Cole  4889Meyers    Hernandez 021095242342083Ford Expediti1993
Jeffreyches7132Martinez  Stephens  092292495799091Cadillac CTS 1993
Spencerhave3054Hogan     Pugh      042492692342082Ford F350 Cre1992
Lake Rita  7546Jenkins   Brown     072593222730018INFINITI QX601994
Williamsshi4290Graham    Miller    101195943881018Toyota Regula1995
New Jennife2283Garcia    Smith     092694449907080Volvo V70    1991
Carterchest3569Lopez     Smith     122591963887038Volvo S40    1994
Johnshire  1518Watts     Alvarez   asdfga196055042Freightliner 1994
West John  0651Lee       Dawson    110990936345056Jeep Liberty 1993
East Matthe4490Alvarez   Carter    070691531048050Ford F350 Sup1991
South Cryst1271Robinson  Hill      070994709563038MAZDA CX-5   1990
Keithton   5956Duncan    Williams  111490012600093GMC Sierra 351990
South Saman4028Dunn      Webster   072395895016002Chevrolet Ast1993
Thomashaven4950Cruz      Vega      062293000000011Nissan Regula1992
New Matthew8216Martinez  Phillips  011593000000030Chevrolet Sub1991
Hopkinsmout8623Nelson    Maldonado 081491000abc059Chrysler 300 1995
Matthewport7809Hernandez Bennett   061590042832027GMC 1500 Regu1992
Port Sarahb5827Ramirez   Jones     101395000000049Chevrolet Equ1990
Laurenville2786Brown     Hunt      110293296420062Chevrolet Ave1995
Josephborou6899Hale      Williams  011591725844000Lincoln Town 1993
New Craigbu6293Rogers    Elliott   081294539008076Dodge Challen1994
Lake Veroni0086Parker    Rose      100092595529001Acura RLX    1991
Colemanton 9319Navarro   Oneill    100294276285052MAZDA Protege1990
Port Michae8903Klein     Russell   120594600047050BMW 7 Series 1994
Kristenstad6249Evans     Williams  090792778700061Hyundai Scoup1993
North Victo0000Blair     Jenkins   061195327155086Chevrolet Exp1991
New Rebecca6327Harrison  Smith     050495564757053Nissan Altima1995
North Jeane4874Villegas  Lewis     110391674036086Hyundai Tucso1992
New Ericbur0863Taylor    Day       102492928199039Dodge Caravan1990
Shahhaven  8766Adams     Martinez  111895536927066Lincoln MKC  1993
Yatesview  8375Reynolds  Phillips  091692932342057Volvo C70    1995
Lake Craigc4824Jackson   Kemp      051792676377033Volkswagen Je1995
Douglasburg2760          Pearson   040190563480092Chevrolet Exp1993
New Angela 0582Landry    Williams  110993580065011Scion tC     1991
Lake Michae7725Garcia    Brennan   071491525040005Mercedes-Benz1993
Karenmouth 9867Booth     Smith     060495498990000Ford Explorer1991
Torreshaven5038Hunter    Noble     070293401331037Mercedes-Benz1995
North Abiga7706Hill      Kerr      062692636675077Volvo V40    1994
Sergioside 4110Smith     Hampton   071995835789055Isuzu Trooper1994
Jonesfurt  9797Bradley   Garcia    071993145848065Dodge Ram 50 1995
Edwardsport4967Morris    Knight    070892876905041Lexus LS     1991
North Vanes7124Garza     Barber    070391463472008Nissan King C1992
Fordton    6485Jackson   Johnson   081090424239011Cadillac XLR 1991
Johnsonton 3660King      Carr      122594330014024Mercedes-Benz1991
Jefferytown5570Hurst     Meadows   021990713331064Mercedes-Benz1991
Danielburgh3021Johnson   Dodson    111995383877037Oldsmobile In1991
Walkerville9271Phillips  Silva     022891021979066Ford Expediti1990
Lake Ronald4940Griffin   Mcgee     092094235575083Chevrolet S101995
Atkinsshire6618Stevens   Williams  120990123445075Toyota Tundra1994
Silvamouth 8250Porter    Hull      041693361070026MINI Coupe   1995
New Jonatha7154Sandoval  Green     051895002648031Alfa Romeo 161992
New Juanshi0621Beard     Hughes    041092407717047Lamborghini H1991
Brianside  3114Webb      Carpenter 121692184020008Acura NSX    1995
Norrisshire5466Estes     Welch     040095927001084Dodge Dakota 1992
Port Kyle  2633Gonzalez  Mullins   101592337170069Mitsubishi Ra1992
South Miran7651Roberts   Christense120890637829015Kia Sephia   1992
West Brando3052Smith     Turner    092592796821096INFINITI Q70 1990
Port Melani7238Reed      Hawkins   120092000abc037Honda Civic  1995
Port Justin4150Hernandez Harrell   278235104942050Toyota Supra 1995
Lake Markto9599Jones     Powell    122094118872025Mercedes-Benz1993
Jessicashir8130Morgan    Mccall    042291905724045Buick Rendezv1992
Gibsonstad 0079Cox       Thompson  032295444814045Nissan Altima1990
Port Michel6868Owens     Gonzalez  071392033666008Toyota Camry 1993
Bakerland  1273Esparza   Morrison  042091183103017Chevrolet Exp1994
Amberton   5334Small     Wright    120995274894059Toyota Camry 1994
East Thomas4586Lewis     Smith     020790193558080Mercury Couga1994
Port Lindas8657Austin    Johnson   022194031943066Pontiac Monta1990
Veronicahav5367Poole     Rivera    082491325314013Toyota Avalon0000
           4687Carter    Allison   040393140957076Toyota Land C1991
Mercadovill9126Mckenzie  Buchanan  062395539632031GMC Sierra 351992
Port Shanno0705          Roberts   072793057498075Honda CR-V   1992
West Michae4605Pittman   Hendricks 030790670594008Ford Ranger S1991
Port Marvin0627Murphy    Dougherty 122491264537040Honda Passpor1990
North Carme1038Coleman   Fox       072391638101046Lincoln Navig1994
Wrightland 7922Sutton    Taylor    062095238948015Honda Accord 1991
South Chris9892Chase     Diaz      101591176085076MINI Hardtop 1991
East Jennif3573Trevino   Horton    030295557086032Ford E150 Car1990
South Wayne5613Ward      Jenkins   070293000abc054Lexus NX     1993
East Eugene2331Johnson   Stevenson 092694976429070FIAT 500c    1991
East Joel  3062Campbell  Rollins   020593299776073GMC Sierra 151990
Gomezside  1720Santos    Garner    112090266611020Dodge Caravan1995
Boydport   7133Carlson   Martinez  071890163590013Volkswagen Go1994
Barkershire4069Holland   Robertson 042595288606059Acura CL     1995
Rileyboroug0000Perry               110994679650078Lexus LS     1990
Hickscheste6218Smith     Evans     110392348298000Ford F350 Sup1993
East Megan 2761Johnson   Smith     010392608414007Ford Probe   1990
Lake Brian 1048Rice      Escobar   111795000639017Toyota Avalon1992
Lake Shaun 9190Johnson   Reyes     110590238062029Ford Fusion E1994
Juliatown  1748Garcia    Bailey    041093955712051Ford F350 Sup1992
Tranhaven  1745Williams  Dudley    122293754105085GMC Sierra 151993
Juliabury  0635Stanton   Wagner    061490337350024Toyota Venza 1994
Laurenbury 6190Lindsey   Manning   021792321839017Chevrolet Tah1990
Juliefurt  7785CunninghamJones     022691000abc065Lexus IS F   1990
West Laura 9995Marshall  Perez     100490879136067Chevrolet Mal1995
Michaelberg1069Cox       Craig     122190803383061Dodge Ram Van1991
Zhangside  1179Green     Miller    120191812278100INFINITI QX601993
Leslieside 5830Zhang     Pierce    101095094922011Chevrolet Exp1990
Lake Jasont0829Bauer     Anderson  072192979756060Toyota Land C1992
Judithchest1003Hunt      Davenport 031795511664046Chevrolet Sil1994
New Donald 8402Walsh               120794564378015Audi Q7      1994
Oliviahaven0319          Roberts   100990439155030Pontiac Trans1994
North Amand5434Wood      Andrews   082792563428068Toyota Regula7588
East John  5269Lynch     Le        102494539478083Mercedes-Benz1992
Destinyches8303Griffin   Duke      091893223572069Dodge Sprinte1992
New Danielb8503Brown     Berger    062094693930025GMC Savana 251993
Markberg   4445Haley     Fuentes   102690958302024smart fortwo 1994
Robertberg 7187Vasquez   Olson     011690000abc041Acura TLX    1990
Webbbury   0222Woods     Maldonado 102094102707054Toyota Echo  1993
Sarahfurt  0890Floyd     Serrano   080794825606019MAZDA CX-9   1992
Dylanfurt  8898Little    Morales   021790454832027Dodge Ram Van1992
East Coryst2066Mckinney  Roberts   062691139928069MAZDA MX-5 Mi1995
East Brian 3614RichardsonPalmer    040990560728050Jaguar XK    1994
           7493Eaton     Snyder    042691719896016Kia Sportage 1995
North Jonat5490Hamilton  Hill      041190105136076Mercury Mysti1995
Whiteshire 6079Williams  Martin    121895520852052Volkswagen Ti1992
Port Lindse9408Garcia    Roberts   110590626026028Dodge Neon   1993
Prattberg  4998Mills     Martinez  121593202480053Chevrolet G-S1991
Tammybury  2604Salas     Wood      091892914854058GMC Safari Ca1991
West Arthur4672Cole      Flowers   112490560010078Hyundai Sonat1990
South Danie6570Diaz      Henderson 062290710370079Toyota Tacoma1994
North Carri2848Hendricks Horton    021495999418028Ford F250 Sup1994
North Jeffr8449Schmitt   Taylor    041990637662012Mercedes-Benz1992
Stephanievi7413          Davis     061295138374041Honda Ridgeli1991
Colestad   9930Burgess   Simpson   012695801700049Jeep Wrangler1990
Campbelltow0000Crawford  Fritz     071495602500034Suzuki Aerio 1992
New Thomas 9973Crawford  Koch      122290521663089Buick Park Av1994
Molinachest5206Martinez  Bruce     051393139753037Rolls-Royce D1995
Bernardside2122Harmon    Waller    080795100021046Chevrolet Sil1992
New Kenneth0420Alvarez   Carter    110090005975018MAZDA B-Serie1992
Schaeferlan2041Clay      Valdez    122395517328058Dodge Sprinte1990
East Connie2318Lane      Spencer   101391666864041Ford F450 Sup1991
West Jasmin0790          Kelly     061891488667052Ford Transit 1994
Lake Daniel7794Taylor    Adams     031691689900024GMC 3500 Regu1994
West Daniel8220Garcia    Dodson    102590905954082Mercedes-Benz1990
East Caleb 2392Burke     Evans     051694000000009Audi A5      1993
Kimberlyton4586Schultz   Jimenez   062792114347077Chevrolet Tah1990
Ryanshire  8863Stewart   Newman    012793871856063Chevrolet Ven1992
Nunezstad  0888Lowe      Scott     090790591508096Mercedes-Benz1995
Nicolebury 9254Berg      Barr      101894526511002Dodge Avenger1994
East Erin  5891Boyd      Hamilton  052892030371057Dodge Ram 3501993
New Frankfu4788Smith     Freeman   071491927706021Ram C/V Trade1994
Lake Jamesf4292Miller    Montgomery121494822184030Geo Metro    1995
Andersonvil1540Hill      Rivera    062892743897009Pontiac Bonne1993
West Olivia7005Booker    Wall      111391843499085Buick Envisio1991
Port Stephe4243Barron    Nielsen   121690992187035Chevrolet Sil6230
New Douglas3736Jensen    Fleming   090092655424065Volvo XC70   1995
Richardboro3464Ferguson  Mckenzie  110793720464069Chevrolet Exp1995
Hartshire  6813Carter    Thomas    022792959300066Lincoln Navig1995
Kaylacheste6025Jones     Jackson   042590689301028Toyota Prius 1995
East Michae0672Clayton   Stevenson 032191888744061Hyundai Sonat1995
Port Haleyt4079Price     White     011094188513051GMC Savana 251993
Solomonview8772Crawford  Hicks     042592395663005GMC Sierra 150000
Davidcheste9154Marsh     Cook      090394530256003Lincoln Navig1991
East Carol 4454Hurst     Castillo  122892778629078Nissan Maxima1993
New Michell1427Campbell  Hart      050592000abc028Rolls-Royce G1991
Port Jordan6120Stewart   Bird      122495271496087Jeep Grand Ch1994
Leonardches0991Chavez    Kirk      082294077614080Chevrolet Ast1994
New Theresa5095Daniel    Baker     032093314114021Mitsubishi Di1994
South Micha9706Martinez  Beltran   080894250859017Acura MDX    1992
Melissaport7986Mitchell  Wilson    asdfga633835094Suzuki Reno  1994
Port Sabrin9856Quinn     Walker    020790938227056Toyota Celica0000
New Chloe  9421Wilson    Vang      021292316479066Ford Taurus  1994
East Jonath9797Munoz     Villegas  080394782466035GMC Safari Pa1990
Hayesberg  3826Phillips  Frazier   010391886044043Volvo C70    1991
Chanmouth  2847Chavez    Brandt    122492907138045Toyota Camry 1993
Lake Dawnvi0915          Mckee     072191057967078Toyota Highla1991
Prattville 0891Anderson  Davis     030594949905031GMC Suburban 1990
Snyderport 4313Aguilar   Petty     092193338116012GMC Savana 351995
North Wanda1267Thompson  Jones     121492982411083MAZDA MAZDA3 1992
Port Tonyab7727Tucker    Waters    010094642979019Dodge Ram Van1990
Timothymout8370Dominguez Cohen     120291614616032Nissan Armada1995
New Darren 0267Reyes     Wright    021494658352000BMW 5 Series 1990
East Ambers2077Hernandez Gomez     062592111412041INFINITI I   1994
East Sheri 1627Moreno    Warren    042392587217084Mercedes-Benz1994
North Shell5380Shaw      Martin    100195923076068Honda Fit    1992
Kathrynhave6005Munoz     Osborne   032193000abc056Mitsubishi Pr1992
South Troys7740          Lloyd     102891257980017Mercedes-Benz1993
East Philli3190Clark     Hogan     050495896027092Chrysler 300 1995
Port Jason 6292Harmon    Taylor    070693805114010Mercury Sable1993
West Paige 9059Turner    Larson    012690767210099Isuzu Hombre 1990
New Erin   6027Nguyen    Hughes    012791771280069Ram 2500 Regu1991
Brooksview 1232Gross     Farrell   091091643738000Geo Tracker  1992
New David  6334Miller    Sherman   030894216383074Cadillac ATS-1991
East Loganh5226Frederick Miranda   020494818494039Chevrolet Col1993
New Mariato4682Malone    Moore     050995368964037Chevrolet Ast1990
Port Antoni9823Barnes              020491583223071Chevrolet 2501991
Davidmouth 4697Patterson Trujillo  112294113164011Plymouth Voya1993
West Erik  2525Dennis              111295823908092Dodge Avenger1993
Lake Amy   0897Fernandez Acosta    091491433995027Toyota Highla1993
New Travisf2646Huang     Schmidt   030192207820049Ram 1500 Crew1991
Hunterhaven6337Henderson Becker    052595211735026Dodge Stratus1990
Rickeyview 1152Williams  Sparks    120593445851021Ford Ranger R1991
Gomezshire 6374Hunter    Taylor    040895273894081Chevrolet Sil1992
Patricialan6044Ryan      Henson    091590740726005Mercedes-Benz1995
North Jamie2691Vasquez   Ortiz     110095007237099Chevrolet Exp1993
East Christ0245          Maxwell   071091824247087Pontiac Monta1993
Port Kelly 7500Nguyen    Hoffman   102091121390006Toyota Tacoma1995
Port Christ1644Wilson    Anderson  070494471160011Dodge Ram Wag1990
Jonathansta8947Sharp     Burgess   asdfga019057028Subaru Imprez1990
Port Susan 5903Pineda    Stone     071194988719065Chevrolet Exp1991
Smithshire 0321Alvarado  Thompson  112892542398081Toyota 4Runne1990
Mooreshire 0037Jones     Smith     101291562077067Buick Park Av1992
East Sandy 7104Perry     Richardson022892365668029Cadillac Eldo1992
Brennanmout1813Davis     Wolf      121095518270040Oldsmobile 981993
Joannshire 3796Hubbard   Henry     122390616802063Volkswagen Je1994
Lucasmouth 3133Byrd      Hanson    050390025667033Chevrolet Sil1990
West Steven0642Kelley    Guzman    479700454433xyzFord F350 Sup1992
East Darlen9896Harris    Esparza   120693180685002Ford E350 Sup1994
North Jenni9605Mckinney            111594750175071GMC Safari Pa1990
Rothville  2589Smith     Brewer    032594487900081Lexus RC     1991
New Aprilto0asdMartin    Vasquez   040094988601002Chevrolet Sil1992
Lake Rodney7901Peterson  Moore     010693779318043GMC Vandura 21995
North Nancy3915Ellis     Anderson  102194814949047MAZDA MAZDA6 1992
Alexstad   1751Lee       Wade      012292216439042Acura ZDX    1991
Martinhaven7651Johnson   Miles     060795558389070Oldsmobile 881991
East Dawn  6265Bruce     Wright    121895189392009Dodge Ram Wag1993
           6668Moyer     Green     071794293567098Kia Amanti   1994
Mooremouth 3757Dorsey    Dean      021091000abc065Toyota RAV4  1991
West Stacy 9897Fuller    Johnson   022690927272100BMW Z4       1990
Port Kristi4705Williams  Allen     090992161662057Isuzu i-370 C1991
Lauraland  0894Alvarado  Jackson   072690395736074Jeep Grand Ch1990
Amandamouth2863Rogers    Combs     080095387195033Chrysler Cros1993
North Jacob4816Riley     Frazier   040193854478085Jeep Liberty 1995
Randolphber0884Haynes    Ellis     071993000000002Aston Martin 1991
Port Markbe2496Davis     Miller    111891811902091Ford F150 Sup7001
Lake Lisamo5812Daniel    Gonzales  020292285273019Lexus IS F   1990
East Shelle6190Smith     Garcia    050791792373058Nissan Pathfi1992
Heatherland3037Martinez  Bridges   062494672515095Isuzu Amigo  1990
South Molly8861Dixon     Rodriguez 052392887891055Hyundai Genes1995
Jessicaberg4336Francis   Rogers    091491045088002Land Rover Ra1992
Kelleytown 5648Holt      Greene    060595959335022Chevrolet Mon1991
Maystad    7498Daniels   Randall   042590925395025Dodge Viper  1995
Christopher0805Hall      Macdonald 071595828366019Chevrolet Exp1991
West Justin2703Wise      Lyons     060995517992020Dodge Sprinte1995
Vaughanches4743Powell    Washington102092983284081Toyota Coroll1990
Hartmouth  7977Barnett   Vasquez   112695728721052Ford Mustang 1992
South Kryst0282Thompson  Chavez    122795873439066GMC Safari Pa1993
Aaronmouth 7753Nunez     Scott     102592662135094Nissan 370Z  1992
East Heidi 8284Gonzalez  Duarte    042593444138095MAZDA MAZDA5 1994
West Willia8490Evans     Sims      111293454994068Honda Clarity1993
Gregoryvill6411Phillips  Guzman    110594237143000Mercedes-Benz1992
Christopher1106Anderson  Brooks    121895579321035Oldsmobile Br1990
Port Rebecc7305Day       Thompson  070992630509046Oldsmobile Ac1990
Shelbytown 3881RichardsonBarron    012590187025xyzPlymouth Neon1991
Andersonvil2601Hunt      Roberts   021995670335093Eagle Summit 1993
West Tiffan0305Bailey    Stewart   080994980020073Mercedes-Benz1994
Taylorland 5895Merritt   Morris    092894274049095Chevrolet Tra1994
Armstrongla7829StricklandWarner    011091002440038Nissan Pathfi1990
New Ann    0982VillanuevaSmith     102391795065044Jeep Commande1990
Cabreraches1280Roberts   Norris    010593988484007Nissan Titan 1990
Davidfort  1455Smith     Mccormick 072391321120030Volkswagen Go1991
Davidland  2609Jackson   Martinez  121694000abc077Nissan GT-R  1993
East Randyb9425Mayo      Stark     052095135924070Mitsubishi Mo1990
East Sierra9428Harrison  James     072292814608017Genesis G80  1993
Reedmouth  8174Coleman   Walker    091193390207062GMC Sierra 351994
           7939Shaw      Mclaughlin110291741304054Saturn L-Seri1995
Donaldberg 5184Jackson   Lopez     041790569049094Toyota Paseo 1990
New Justin 6931Mata      George    121494131676059Oldsmobile Br1992
East Bryan 1650Peterson  Ellis     100594461305001Kia K900     1995
Alechaven  1488Turner    Pierce    052492630334017BMW 3 Series 1993
Nataliehave7891Mills     Olsen     070592930912008GMC Savana 251991
Jamiestad  3062Gonzalez  Marquez   060194667537021Mitsubishi Mi1991
Lake Christ3610Cannon    Trujillo  110690376960043Suzuki SX4   1995
West Jessic2761Barr      Huffman   121794410833088Freightliner 1990
Port Jordan8375Parsons   Johnston  737211733984058Oldsmobile LS1993
Davilatown 6047Knight    Reed      120495191256099GMC Sierra 351993
Mcdonaldsta9056BlankenshiPonce     020395642794081Honda HR-V   1995
Port Emily 4419Cooley    Berger    051292929408079FIAT 124 Spid1993
Jamesfurt  6149Rodriguez Carlson   061194877202022Nissan Quest 1990
Nelsonhaven1469Hodges    Newton    070590044393026Buick Cascada1992
Hutchinsonp0486Finley    Flores    081093370163074Dodge Stratus1994
North Marga5961Anderson  Joseph    041095292606022Cadillac XTS 1994
Lake Terri 1897White     Russell   082192800570010Oldsmobile In1990
Port Rebecc0341Rubio     Rivera    062892591644028BMW 4 Series 1994
Perezboroug7219Nunez     Grant     062794990760015Subaru Tribec1995
Meganport  2813Robinson  Wagner    071595791704083Cadillac SRX 1992
Parkburgh  0asdHenry               112290091942082Land Rover Ra1993
Jessicaview3468Winters   Murphy    011995698515027GMC Savana 151995
Port Patric6813Thompson  Brown     090091750737074Ford Transit 1995
Annebury   7325Burgess   Walton    120795229701006Acura RDX    1990
Yodercheste1725Webster   Rodriguez 070992712993089MAZDA MX-5 Mi1991
New Zachary0462Palmer    Callahan  102291413109042Freightliner 1992
Port Thomas7049Dixon     Howell    011691379187047Ram ProMaster1992
Ibarraborou0asdJones     Brown     102894223615056INFINITI J   1990
East Willia1931Pace      Clark     041894367411025Audi S5      1990
Floydport  6551Dillon    Sutton    120094585541035GMC Sierra 351663
Suarezview 3798King      Davis     010190588599084Toyota Tacoma1993
Richardton 4874VillanuevaJones     072294522610048Volkswagen Ti1990
West Susan 6815Hensley   Chase     051995519123090Toyota Tacoma1993
North Charl0705Tucker    Wilson    052091035105089Chrysler Town1993
Krystalches9669Garza     Padilla   090791028784056Jeep Cherokee1995
Freemanberg8512Chan      Robinson  061791047623084Ford F150 Reg1995
Nicholsview3794Miller    Smith     021893446980036Buick Riviera1990
South Cindy5257Oliver    Alvarez   060590653629018HUMMER H2    1995
Lake Timoth2643Peterson  Jackson   102590095493077Ford Ranger S1990
Garciaport 1020Meyer     Duncan    121391018158021Honda Ridgeli1991
Port Johnmo8802FitzgeraldWalton    040992993494027Audi A4      1994
Brandonvill0741Jacobs    Barnes    110191544240048Mercedes-Benz1991
South Jessi5535Chambers  Burnett   051294257700049Hyundai Sonat1990
Paynestad  9279Williams  Pacheco   042795992586073GMC Suburban 1995
Port Cather0083Arellano  Mason     030195148613054Suzuki Sideki1995
Wigginsvill4807Martin    Banks     102693067506006GMC Canyon Cr0000
Garciachest8713HarringtonHawkins   052093017137026Mercedes-Benz1993
New Gregory5038Brown     Jones     052794339230066MINI Countrym1995
West David 0687Cox       Duncan    052392844254000Mercury Villa1995
Townsendfur6925Powell    Gilmore   022092430187068Dodge D250 Cl1992
Port Meghan6702Mathews   Shelton   071093493994047Mercedes-Benz1995
West Michae4940Sherman   Zuniga    011892530567023GMC Savana 351991
West Alyssa4371Dickerson Hunter    051493102990033Cadillac Esca1993
Stacyhaven 9846Arnold    Smith     042193919057020MAZDA B-Serie1995
Lake Anthon4974Johnson   Nelson    091591365480034Nissan Fronti1990
North Devin6303Morris    Benton    051195600898014Scion xD     1992
Port Meliss3593Mack      Mckenzie  080993859697053BMW M3       1994
West Michae8849Kidd      Baker     050992812168095Dodge Grand C1994
Port Harold7909Jordan    Murphy    051190077053014Buick Regal  1995
           5166Hartman   Haynes    051491207813005Volkswagen At1991
New Lauravi0000MclaughlinMartinez  060990431785074Ferrari 430 S1992
Marshallvil1359Carroll   Molina    080790720588043Nissan Pathfi1992
North Richa0806Mcdaniel  Johnson   071593247161035Chevrolet Exp1990
Port Christ6935Phelps    Duffy     121793749253083Toyota Land C0000
West Justin8650Barr      Griffin   022592752229097Chevrolet Sil1993
New Dawnbur6885Perry     Brooks    051992620098046Porsche 968  1992
Kevintown  4975Wilcox    Kline     050595262375065Lincoln Navig1994
Harrisborou3067Shaw      Smith     071392976922021Volvo 940    1995
North Scott8403Brown     Cummings  072791014328074Ram Dakota Ex1992
Danielbury 4573Williams  Mcdaniel  061495689134098Kia K900     1993
East Rebecc0999Davidson  Mercer    122390526046066Volkswagen Pa1991
Sparkstown 7110Doyle     Hall      082892868390038Ford Transit 1314
Wilsonbury 2521Chen      Brown     011393733578045Mercedes-Benz1990
West Charle9444Jacobs    Jenkins   102595471355095INFINITI QX601994
Brownhaven 3268Bailey    Medina    100895739622072Kia Sedona   1992
Jerryburgh 8925Rice      Foster    110092715199018Hyundai Ioniq1991
East Jamie 0952Carpenter Oconnor   110094025947026Ford Mustang 1994
Danielview 3605Snow      Hansen    092690766366076Chevrolet Exp1992
South Natha0616Dawson    Coleman   072192000abc003Nissan Versa 1991
Port Regina5729Murphy    Hernandez 090994400836079Mercedes-Benz1993
Robinsonsid6965Williams  Gaines    032794379153094Nissan Titan 1994
Jameston   3062Ayala     Stone     100691992455083Volvo XC60   1995
Melodyside 0884Oconnor   Simmons   080990960132042Mercedes-Benz1993
Port Davidp5222Graham    Mack      022891429429042Ford Focus   1991
Laurahaven 7849Smith     Smith     091894684899022Mitsubishi Ec1995
Shannonbury9835Luna      Hampton   092790434626001GMC Savana 251995
Paulburgh  2055Anderson  Wise      022790424836023INFINITI FX  1995
Stephensche4790Franco    Mccoy     060191286637020Kia Rio      1993
Mooremouth 2486Avila     Washington101793623379013Chevrolet Col1995
Amandabury 3291Harris    Guzman    122493098773070Jeep Renegade1991
Williamsbor7197Garcia    Wagner    051894339679068Hyundai Genes1993
Port Paulvi5827Marks     Harris    021090771790000Kia Spectra  1992
North Micha5676Adams     Williams  041093688485082INFINITI Q50 1994
New Debra  0040Williams  Jordan    072190566749053Volkswagen Go1991
Millerborou7546Davis     Barnett   031593158724017Cadillac Esca1994
Stephanievi9298Ramirez   Cain      081992993747035Subaru Legacy1991
South Sarah0401Hansen    Hernandez 040891854731096Audi A8      1992
Johnberg   4123Schneider Brown     050891635034036Chevrolet Exp1992
South Alexa5153Bennett   Santos    081794000abc027MINI Converti1995
Lake Pamela1559Hines     Wall      010790225042030Acura RL     1994
Lake Sydney9497Bailey    Hampton   041494385653042Volkswagen Co1991
Larsonfurt 0000Frederick Brown     080695551668002Chevrolet Cam1993
Lawrencevie5201Alexander Nash      112290016684034Dodge Grand C1994
East Lauren4692Nichols   Carey     010892460352056Lincoln Town 1991
Lake Sarahf7302Hanson    Hamilton  022695568826098Ford E350 Sup1995
Lake Jesseb7242Davis     Webb      110595475067009Kia Forte Kou1994
Port Andrew2578Holland   Benjamin  021090580359047Lexus SC     1992
Lake Jessic0617Gillespie Peters    122592052155019FIAT 500     1992
           5585Holmes    Reed      010990065296063Chevrolet Equ1995
West Tracy 5321Jones     Wilkins   051994971360080Subaru BRZ   1991
Port Juliel1446Mendez    Martinez  112090138292076Nissan Altima1994
Johnsonbury0180Barnes    Ford      012695171998007Isuzu i-370 E1994
East Elizab7834Ellis     Pacheco   asdfga300822053Audi TT      1993
Annatown   3051Morton    Patel     010995982901060Chevrolet Bla1991
Phillipshav0084Edwards   Johnson   071594107786071Ford Fusion  1990
Port Theodo2283Wagner    Barry     102594598020071Audi allroad 1990
Markview   9677Perez     Pearson   070692141536011Audi RS 4    1991
Warnerstad 2028Harrison  Scott     082390492028100Toyota Sienna0000
Claytonmout6445Jackson   Baker     090790535754042Mercedes-Benz1994
Jenniferber8312Diaz      Hall      012394849839014Jaguar F-PACE1995
Port Jasonb8277Williams  Hill      112390483154082Lincoln Aviat1990
Hansenborou1544Norman    Jackson   070794192939099Chevrolet Cam1995
Lake Carlab8994Smith     Briggs    070091071239050GMC Sierra 151994
Shannonvill7188WilliamsonDavis     050790675041022Honda CR-V   1995
East Kimber6737Davis     Lewis     041095893706012GMC Sierra 151992
Gillespieha4433Taylor    Richmond  040490000abc020Dodge Ram Wag1991
           2368Barker    Ferrell   020194267557020Isuzu Rodeo  1993
Austintown 5400Lee       Bennett   101895874679073Subaru Baja  1991
Benjaminvil5421Stevenson Campbell  021793252456087Ram Dakota Ex1992
West Janice0000Patterson Young     012393175710053Ferrari 488 S1992
South Benja2039Mejia     Flores    071795000000071Chevrolet Sil1991
North Donna9111Rogers    Webb      030391233090032Volvo XC90   1990
Morganside 5767Jackson   Benson    070195090944038HUMMER H1    1992
East Pamela8669Holmes    Haney     112490435746077Ford Ranger S1990
Dianeboroug5864Stark               110094170993085Ford Transit 1994
Wrightview 1183          Camacho   052192432786020GMC Savana 351995
Hannahport 0901Combs     Reynolds  052494417262003Buick LeSabre1995
Jessicaboro0446Edwards   Poole     111394504975028Chevrolet Mon1992
Moniqueview0788Hamilton  Wilson    042395311388019Honda Civic  1995
Brewerport 2724Leach     Johnson   040390216195011Ford Mustang 1993
Boydchester9146Webb      Griffin   081790989430082Ford Mustang 1991
Thomasshire4715Parsons   Williams  111291945097052Oldsmobile Si1094
           2194Wallace   Anderson  020994294897100Ferrari 488 G1992
South Matth1773Rose      Bradley   020993854334036Ford F350 Reg1992
Port George3409Nunez     Crawford  111695568275033Mitsubishi La1990
Baileyhaven9339James     Ball      102295098152063Nissan 370Z  1991
Meghanfurt 7611Cox       Reynolds  110891223162093Toyota Coroll1990
East Candac8882Martin    Hill      051692591868083GMC Savana 151992
Port Kimber5747Evans     Medina    071695261178065Buick Century1990
Johnsonmout1148Navarro   Lee       110590310475048Dodge Neon   1995
North Johnp1528Lamb      Romero    102092197882056Ford Transit 1991
East Michae2625Fisher    Hatfield  012690233455086Chevrolet Spo1995
East Amyfur4057Stone     Garner    091495091538083Bentley Conti1994
Danielport 6356Carrillo  Dominguez 070795294979013Cadillac Eldo1991
Fosterhaven4249Moore     Smith     010295485231088Mercury Marin1990
Perezton   1157Benjamin  Burton    062493541566031Toyota Previa1990
Christinato2094Vargas    Williamson010294866109009Volvo V70    1992
North Prisc4131Mejia     Johnston  050992644399052FIAT 500c    1990
Lake Andrew4787Chandler  Rose      021294858931043Jeep Patriot 1990
South Antho9929Coleman   Bailey    081195607409045Chevrolet Ast1991
Nelsonview 0628Wallace   Sloan     041490038019098Chevrolet Sub1990
Camachofort3727Pope      Anthony   070490167140069Ford Fusion E1992
South Matth9343Farmer    Anderson  092890038026081Jeep Wrangler1994
East Jerry 9863Harris    Harrington101494193095021GMC Savana 251991
New Shannon6994Case      Barr      090490561263078Suzuki Equato1991
South Chels3200Russell   Cordova   092094986405025Ford EcoSport1995
East Jessic9515Lambert   Hernandez 111993511686078GMC Savana 251995
Jennifertow0656Flores    Miller    032093589270096Volvo S80    0000
South Randy4942Hill      Esparza   052190997186078Lincoln MKX  1990
New Jamie  7094Harris    Hernandez 092095034877025Audi S4      1994
Amyport    9245Tyler     Whitney   042193311613057Kia Sedona   1991
East Rebecc8006Miller    Reed      120495606125011INFINITI Q70 1990
Delacruzbor7816Johnson   Freeman   052891634664074Pontiac Grand1992
Port Ashley6975Young     Martin    031190080003066Audi S3      1990
North Kelli7796Rhodes    Hoover    060293326205047Hyundai Tucso1993
South Vicki3018Reynolds  Jensen    031394000705055Mercedes-Benz1990
Lake Ryan  3252Mann      Hopkins   031692122235065Volkswagen GT2464
Westbury   0000Fox       Hernandez 050492238701040Isuzu Hombre 1995
South Angel8176Jones     Lopez     040795491549099HUMMER H1    1992
Lake Sharon3061Smith     Luna      102493889092068Nissan Pathfi1990
North Diane7815Kim       Herman    120893824077020BMW 5 Series 1993
Mariashire 6345Smith     Gilbert   091891591957025GMC 3500 Regu1995
East Vernon1876Kelly     Fry       042793363118099Chevrolet 1501991
Danielborou6159Allen     Luna      071790177534060Ford E150 Sup1990
South Angel8136Estrada   Thomas    111294856016070GMC Savana 251992
New Jessica1917Ballard   Wilson    011690873197016Pontiac Vibe 1994
Port Katie 7762Malone    Johnson   031490422700087Chrysler Sebr1995
Anthonyfurt5265Collins   Hunter    062191351805025Mercedes-Benz1992
Richardside7133Park      Peterson  011693154526012Ford Econolin1990
Port Susan 4272Hicks     Adams     032790000000043Ford Freestar1991
Jennifersid2118Francis   Stephens  010891752250042Acura TSX    1995
East Robert8395Phillips  Schneider 010094593997078Toyota Tundra1992
Kimberlyche4434Patterson Santos    020891099037099GMC Sierra (C1990
Blackwellvi0501Jones     Wood      101394229619068Ram 3500 Crew1990
Hamiltonche2320Peters    Hood      021295742885031Chevrolet Ven1992
Boltonbury 1917Jimenez   Brooks    031390047879094Mitsubishi Mi1994
Bakercheste2095Figueroa  Gibson    122291808790094Mercedes-Benz1992
West John  0931Gordon    Tyler     051792486262079Chrysler Sebr1990
Lynchhaven 0371Wilson    Arnold    081093000000003Lexus LX     1992
West Michae7444Jackson   Gonzalez  070891496765051Alfa Romeo 161991
Port Kimber5269          Orozco    120190137120008Audi A6      1992
Lake Victor6508Juarez    Schultz   112292026882000Chevrolet Sil1990
Aimeeburgh 6323Shepherd  Stevens   071894000000031Ford Ranger S1990
North Caitl6455Shaw      Santos    050995772593027Mitsubishi Mo1995
South Morga7087Waters    Cook      012292631527038Honda Civic  1992
Farleyview 8338Williams  Montgomery041691741240010Scion xB     1995
Ortizside  9359Gonzalez  Snyder    032494400773016Audi Q7      1991
Cuevasmouth8221Alvarez   Brown     082391001674085Land Rover Di1993
Lake Cynthi1005          Mack      080793071851073Chrysler Sebr1994
Ambermouth 4697Barnett   White     100693939208071Lexus LS     1992
North Ashle8360Freeman   Burns     070391329263018Audi S3      1994
Kyleville  5430Brown     Sheppard  052792474425065Dodge Grand C1993
Wiseshire  1815Hickman   Johnson   012594560195019GMC Savana 251993
Lake Edward6904Mason     Guerrero  120990104945058Ford F250 Sup1992
Bowersberg 2633Taylor    York      102290738411013MAZDA B-Serie1990
East Steven4932Lamb      Garcia    091891835562093Land Rover Ra1990
Conniemouth7128Mercado   Osborne   021994199430043Lexus GS     1991
East Rickyb8635Bennett   Nguyen    012795333924012Saturn L-Seri1992
Gailmouth  4149Lewis     Austin    051694000abc046GMC Savana 351993
West Robert0927Dunn      Sanchez   041890525453040Ford Transit 1990
Thompsonhav4798Tucker    Mendez    021590008985072Alfa Romeo Sp1993
           0683Bullock   Guerra    041091217206014Audi S4      1991
Jessicastad4413StricklandStephens  071490179901072Audi SQ5     1992
Lake Brando6049Chambers  Cervantes 100195453399064Nissan 350Z  1990
South Antho2774Allen     Conway    012591793068005Ferrari 488 G1994
Elizabethvi2359Lopez     Hudson    092795985643014Land Rover Di1993
South Lisaf5023King      Franklin  081390455429100Nissan Versa 1991
East Meganm6318Cooper    Alvarado  071791495820045Volkswagen Je1994
Karenboroug5438Anderson  Garcia    120492724401037Kia Sedona   1994
South Donal2993Kim       Gibson    111094194823011Kia Rio      1990
North Dillo1841Campos    Taylor    102892069324031Dodge Dynasty1992
South Kendr6294Lee       King      060790454056097Kia Sportage 1990
East Zoelan2327Vargas    Mueller   072191349351058Chevrolet Vol0000
Wrightmouth5288Cox       Reyes     081892382763004Toyota Tacoma1992
Drakestad  7391Nelson    Paul      010593000abc016Dodge Neon   1992
Masseyborou0asdGriffin   Bass      092791560224042Jaguar F-PACE0000
New Kylemou8757Berry     Kent      071691312194094Acura RDX    1993
Lake Daniel9931Foster    Ortiz     121293501819025Suzuki Equato1990
Lake Kristi4002Nelson    Anderson  060093890282001Toyota T100 R1992
Edwardmouth2369Jackson   Dudley    011095972720010Honda Element1995
Shirleyland1061          Griffith  112390252039020GMC Sierra 151995
North Saman0649Price     Harper    090390664187068Toyota Camry 1991
Reyestown  2153Everett   Boyer     111792490920013Toyota Solara1995
North Richa7779Duran     Cohen     052492597910034Chrysler Town1994
North Rossb4829Gonzalez  Hunter    121594444196053Audi Q5      1993
Troytown   2546Anderson  Madden    101190414731066Oldsmobile Br1995
Sheilatown 5052Duncan    Larson    060190113328075Nissan TITAN 1995
Stevenside 2332Maynard   Garza     010794708580086Saturn VUE   1994
Olsontown  1959Young     Rangel    082291185594074Mitsubishi Di0000
Denisechest5715Wilson    Hudson    031395359632000Hyundai Tibur1991
Lake Grace 8756Davis     Stuart    040992820138029Chevrolet 3501995
Port Kelly 1094Fox       Villanueva071391975111005Porsche Cayma1993
Smithboroug6169Warren    Hall      031895637133052Audi TT      1995
Toddville  4897Yang      Marquez   062092730852033Chevrolet Exp1993
Lake Juliep2876Huynh     Mckenzie  080893779557064Volvo XC60   1991
Jonesmouth 6479Leblanc   Rubio     061391368853xyzGMC Yukon XL 1993
Powersburgh5413Johnson   Garcia    102692280154100Plymouth Sund1994
North Micha5332Peterson  Wright    021191800627000Lincoln Navig1992
Port Rebecc6530RichardsonJones     061893215750008GMC Canyon Ex1991
Danamouth  5924Allen     Marsh     062493503267000Ram 3500 Mega1992
East Timoth4394Henderson Graves    030594520706097Kia Cadenza  1990
Port Chelse1885Pitts     Hawkins   122592435664043Buick Park Av1561
Anthonyfort7240Ramos     James     050394906477061Lincoln Town 1992
Fergusonber7196Williams  Martinez  111690392355088MAZDA MX-5 Mi1991
Jamesville 0000RichardsonMccarthy  090591791895048Acura RL     1992
South Antho5171Howe      Hebert    122790874962014Ram 2500 Mega1990
Port Wesley6638Miller    Coffey    101791577541050FIAT 500     1995
Bennetthave9890Kelly     Gibson    081492930971001Daihatsu Rock1991
West Christ4157Andrews   Hernandez 062795915005062Kia Rio      1990
Burkeville 4409Beasley   Henry     081595642315083Ford Fiesta  1991
Cindyboroug2111Kelly     Knapp     101593247689017BMW X3       1993
Port Stacy 9755Smith     Dougherty 081590554664018Kia Amanti   1991
Adamscheste8487Kaufman   Harris    051895072122045Alfa Romeo 4C1993
Alexport   5993Walter    Hernandez 102891780613032BMW M2       1990
Joshuabury 4032Robertson Hale      061992352369039Ford F250 Sup1993
Stevensshir0asdAndrade   Lopez     020990718574014Hyundai Velos1995
           8115Gilmore   Mcmahon   121495652114001Geo Prizm    1993
East Jennif8596          Evans     011192606903002Jeep Patriot 1995
South Derri7082Price     Smith     031791893061090Volvo V90    1994
Raymondberg2332Martinez  Johnson   081593414946053Audi S4      1993
New Daniel 7225Baldwin   King      022594215276011Cadillac Esca1991
Jimmycheste6496          Valdez    110695793900090smart fortwo 1995
Evansmouth 1624Mooney    Gallagher 060791846908029Dodge Ram 1501993
Lopezboroug2936Johnson   Vang      051895794369073Kia Cadenza  1994
Jeffreyton 5335Thornton  Warner    052795265463052Hyundai Elant1990
Lorihaven  1207Elliott   Lewis     020091227272017BMW M3       1995
Sandraberg 6642Olson     Williams  071592762252051Chevrolet Cam1992
Woodburgh  7903Goodwin   Thomas    040391976654086Chrysler Conc1994
Juanburgh  2901Vaughan   Davis     092891839171011Cadillac Eldo1991
North James8229Garcia    Stanton   081191022443083Jaguar XJ    1993
Wigginsbury2302Jones     Moore     101594767659008Lexus LX     1991
Lopezstad  2025Fox                 082491931020093Chevrolet Mal1991
East Stephe8533Chambers  Rodriguez 011292643649062Audi RS 3    1991
South James4107Nelson    Hernandez 080993757002044Chrysler PT C1993
Kellertown 5235Colon     Petersen  051992865292045BMW X4       1994
           9099RichardsonHarmon    090490994823090Toyota Supra 1993
Port Sarahb8882Rich      Collier   090890000abc064Chevrolet Sil1991
Franklinpor1278Wilson    Clements  121494935139070Ram 3500 Mega1994
Shannonstad3665Hatfield  Yates     041193357495097Toyota Camry 1992
South Kelly0360Allen     Williams  050292306929084GMC Safari Ca1991
Parsonsmout2745Combs     Howard    082391873584061Chevrolet Tra1991
Shepardbury3330King      Mcgee     100093788482068Isuzu Hombre 1993
East Taylor2904Jones     Bass      012895963617051Toyota Camry 1990
Sanchezches3854Mccoy     Gonzales  051391121957xyzGMC Savana 351991
Rojashaven 3360Baker               020792611158059INFINITI I   1995
Blairberg  9772Price     Lozano    041293482730xyzScion iA     1992
New Steven 8388Fuller    Rodriguez 020295333405034Chevrolet Exp1995
South Eliza6150Torres    Allen     051992878214040Chevrolet Vol1990
Scottmouth 2956Smith     Hicks     072590823899032Volkswagen Go1990
North Nicho6345Francis   Camacho   021092114392059Kia Sportage 1993
Edwardshire2062Hughes    Martin    110094943861052Mercedes-Benz1993
Port Justin5556Jenkins   Villarreal081891021676054Chevrolet Cav1994
East Evanto4038Wilson    Willis    121994102822058Audi TT      1992
South Olivi0659Gomez     Ayala     091390840438068Subaru Imprez1992
Patriciavie4396RichardsonMcintyre  101892354352100Nissan GT-R  1995
West Jason 1820Raymond   Smith     100193512017029Mercedes-Benz1990
New Heather0800Bryant    Mills     050895551454015Nissan Rogue 1991
Mooreside  8252Lee       Tate      020895221253005GMC Yukon    1990
Port Jesusm2209Watkins   Burns     070794179274034Nissan Kicks 1994
Hickmanches3312Hill      Morrison  041594756773088Chevrolet Bla1992
South Pamel2477Garcia    Nelson    122292566862071Lexus LX     1992
Port Richar5978Gates     Keller    040895017622032Cadillac DTS 1990
Yuland     4571Johnson   Lopez     021394802622088Hyundai Elant1991
North Jane 0665Roberts   Flores    092691689174073Volvo XC90   1995
Rickybury  2960Ruiz      Mason     122092683885082MINI Converti1994
New Bryce  5544Herrera   Rose      092194970505065Hyundai Sonat1993
West Scott 2781Barber    Smith     040992987742023BMW 3 Series 1990
Sextonbury 5116Burns     Chapman   101290371034008Dodge Nitro  1994
West Stepha0781Soto      Barajas   082093927988053GMC Jimmy    1992
East Heathe5132Jones     Dawson    060191109114001Dodge Ram 2501990
Reeseberg  3545Edwards   Kline     041893179802042Chrysler Sebr1993
Peterside  4912Wilson    Clark     122592620075042Toyota Coroll1995
New Kimberl8587Berry     Herman    060094276120093INFINITI EX  1990
South Ronal1106Bailey    Tate      061594225108027Honda HR-V   1992
Damonville 2165Kennedy   Vega      022592999152027Cadillac DeVi1992
Heathervill5866Taylor    Brown     012390943851009BMW 7 Series 1993
Shortport  0121Tucker    Ford      080795047540064Saturn VUE   1992
South Aaron7826Torres    Jordan    041592556358098Chevrolet Col1990
Port Julief0000Garcia    Harris    091693022054022Pontiac Grand1995
Port Christ3886Rojas     Howard    070891534832004Honda Pilot  1994
Sampsonfort6469Ferguson  Hendrix   011494377108059Ford Edge    1992
Samanthafor1385          Boyd      070791835731082Ford Expediti1992
Lake Cassan0753          Oliver    030492726884006Volvo C70    1994
Port Kevin 5028Levine    Ortiz     071594522757004MINI Converti1995
Johnside   8731Miller    Gonzalez  070494862739097Cadillac STS 1990
Hectorhaven8769Cooper    Mills     030491000000039Toyota Tundra1991
Kerrland   0413Hawkins   Campbell  040993993456021Chevrolet Sil1993
Christopher7919Newman    Jones     032890058255002Mercedes-Benz1994
West Curtis5212Nelson    Reyes     081593251085081McLaren 675LT1992
Holtchester5437Bradshaw  Bennett   070892561276025Ford F350 Sup1990
Timothyches4817Gardner   Bell      082695791798019Ford F150 Sup1995
Deleonside 0000Montoya   Jones     050492759812015Nissan Xterra1992
New Nichola0783Thomas    Winters   062693303936002Lincoln MKT  1995
Port Jason 5341Lee                 010291414943071Volvo XC70   1995
East Kaylas3700Young     Sosa      061092649106087MAZDA MAZDA6 0000
           3277Everett   Allen     121690000000050Dodge Grand C1990
Seanton    6397Bass      Adams     072694741547094Scion tC     1993
West Markto2622Price     Burch     050692000000054BMW X5 M     1991
Shannonvill5291Curtis    Hall      071195036848089Nissan 370Z  1991
Port Daniel7105Mata      Hall      061493899943040Buick Rendezv1992
West Gregor6382Donovan   Owens     091590603851057GMC Yukon XL 1991
New Matthew4740Gonzalez  Rhodes    061095670146092Hyundai Azera1994
Lake Alexis7380Chambers  Torres    070694275026090Scion xD     1990
Rebeccaview8594Jordan    Joseph    091992710972020Ford Ranger S1991
West Willia0213Saunders  Taylor    090495084689059Chevrolet Sil1992
Lake Samuel4231Mosley    Werner    111395954322053MAZDA MAZDA6 1994
North Chris6967Oliver    Johnson   062691593013082Lamborghini A1992
Lake Michae5875Greene    Romero    091794242546017Lexus GS     1995
Deborahhave9365Welch     Keller    092795912368054Aston Martin 1995
           1148Williams  Liu       012695789818051Scion iM     1990
Joshuaborou1152Perry     Rodriguez 110692301134094Maybach 57   1995
East Kevinb4740Chavez    Jenkins   022092289401062Dodge D150 Re1994
Meganshire 9220Chavez    Cuevas    110994000abc064GMC Safari Ca1990
West Kevinp2365Madden    Rodriguez 082491000abc027Dodge Dakota 1994
Millerville8396Diaz      Jones     100195831707005Nissan Fronti1995
Port Jennif9376Allen     Ashley    062491230298047Land Rover Ra0000
Port Joshua5495Francis   Ellison   010191792687075Toyota Tundra1995
New Thomasb4367WashingtonMoore     050390272165032Lexus GS     1992
South Paulf1475Thompson  Sosa      121493774621034Ford F250 Sup1994
Clarkhaven 7091Jackson   Boyer     201998156252020Buick Cascada1991
Mannmouth  0432Price     Middleton 110194542195081Subaru BRZ   1993
Romeroberg 1332Barnett   Carter    051990826577009Nissan Fronti1991
New James  7945Wheeler   Murphy    020791684462018Mercedes-Benz1994
Jesseboroug0063Ramirez   Long      102894802955023Toyota Prius 1994
Lake Timoth9068Porter    Alexander 031991284215055Honda CR-V   1992
Lake David 7678Miranda   Mitchell  121392806134040Toyota Tacoma1992
East Susan 6543Young     Thomas    021393483239089Mercedes-Benz1994
Port Philli8746Miller    Hughes    011590916063100Porsche Boxst1990
South Lisah0471Smith     Cuevas    042191674936001Dodge Ram Van1995
Kathleentow5622Garcia    Martin    070993212758022Volkswagen Ne1993
New Jonatha7379Payne     Steele    050894000000070Scion iM     1995
South Amber7893Johns     Cannon    040494824084043BMW M4       1992
New Laurens0501Stewart   Madden    120694677671075Audi A4      1993
Arnoldhaven8122Waters    Roberts   061490124444022Cadillac CT6 1994
North Alexa9934Turner    Orr       022694668114001INFINITI I   1994
East Jacob 8281Roth      Lee       011690328925012Chevrolet Cor1992
East Tammy 7059          Williams  042492405093039Ford Ranger R1993
South Rebec6373Russell   Dunn      070593443037059Dodge Charger1990
Barryton   6653Hill      Lewis     012391430863100GMC Sierra 251994
Williamsonm0asdMartinez  Garcia    010293648207066Jaguar XJ    1991
East Willia2261Gross     Myers     020292229593035Chevrolet Ven1994
Lopezside  0000Burke     Bass      122895172702085Toyota Tacoma1994
Garyland   9811Mercer    Reed      041594364075027Dodge Viper  0000
Lake Nathan6620Byrd      Brown     071093857574072Volkswagen Pa1992
Port Ambert0000Abbott    Moore     122490437329030Chevrolet Ven1990
Michealmout7097Hall      Miller    032594428741019Acura RDX    0000
Chandlershi9893Barnes    Howell    081494587814099Mercedes-Benz1994
Maystown   4372Suarez    Rodriguez 022093057652026Freightliner 1994
South Bobby6235Wilson    Myers     050291996743081Maserati Gran1993
Darrellberg5486Erickson  Davis     072590512995078Land Rover Ra1992
New Jonatha5289Simmons   Gould     082893529509030Honda CR-Z   1991
Jamesshire 5248Shaw      Lucas     021993801938022Saturn Aura  1992
South Danie5872York      Conley    120793210350023Mercedes-Benz1993
West Lauram2776Underwood Bell      080590108875052Honda CR-V   1995
Andersonton4474James     Mercado   041190428809025Chevrolet Sub1995
East Michae0246Cole      Mcbride   110092570713068Honda Pilot  1994
Michaeltown5387Bruce     Smith     120290455253070Ford F150 Sup1992
Amandaview 0107Hawkins   Garcia    070093109737057smart fortwo 0000
New Tarafur6174Mitchell  Bowers    042190365027092GMC Canyon Re1995
Lake Annett0550Nichols   Ortiz     092690820946015Ford Explorer1992
Robertton  4774Stanley   Wilson    062892188381037Nissan Maxima1993
Petersonche5376Watson    Stewart   072092501080022Ford E350 Sup1994
Port Benjam7546Williams  Thomas    081191681034049Nissan Versa 1991
Coleport   2086Blanchard Ferrell   110692679997081Dodge Sprinte1992
Lake Gregor3951Griffith  Walsh     111694828629097Plymouth Voya1993
Harriston  2613Brown     Wells     121395545007002Chevrolet Sil1991
Claytonfort5756Dean      Huber     010395522722030Ferrari F12be1994
Jasonfort  7155Warren    Palmer    122594118254002GMC Yukon    1993
Smithboroug5032Simmons   Foster    042291246681069Lincoln Navig1993
Lauraside  2784Ramsey    Miller    091991077360056Pontiac Bonne1991
Brandimouth5726Shah      Hill      090395185142069Chevrolet Sil1995
New Lynn   1336Dominguez Goodwin   081093620315071Volkswagen Je1992
East David 5453Stuart    Patel     102692353917065Land Rover De1990
East Barbar8907Moore     Brown     070190838782021MINI Clubman 1994
Guzmanland 8212Townsend  Burns     051390882175058Chevrolet Sil1992
Alexisland 6329Watts     Rojas     111190625929018Mercedes-Benz1991
Brownville 9472Wilson    Barnett   032293265112000Isuzu Rodeo  1990
Lake Andrea1306Reynolds  Wall      051595000abc014Kia Sephia   1990
Turnerside 0912Baker     Jones     011994502837039INFINITI G   1995
Meganview  1757Bell      Shields   032092589117021MAZDA B-Serie1995
Katiefort  6071Smith     Elliott   090391000000010Plymouth Colt1995
Estradaches3299Mcclain   Edwards   062393256635030Ford Taurus  1990
New Sydney 1402VillanuevaHolloway  012093504984017Audi TT      1993
Murphyburgh5066Garner    Carson    090094237972056Dodge Charger1994
North Karen9865Carter    Lewis     050295214462056Cadillac XLR 1995
Lake Kyle  3052Miller    Brown     040091000000054GMC Safari Pa1992
West Marybu0647Edwards   Kennedy   111793644828066Chevrolet Sil1994
Jeanetteber0670Gonzalez  Howard    051194547804039GMC Savana 351991
Ashleyton  6972Morgan    Brown     081990284196035Chevrolet Sil1990
Jillside   8123Miller    Cannon    102490702771054Ford Windstar1994
Kylechester6177Gonzalez  Wyatt     020595658309094Lexus LS     1990
Escobarland7065Brown     Burton    092692066992015Hyundai Verac1994
Cervantesvi8701Williams  Greene    112794777131011Chevrolet Sub1992
South Dillo0944Elliott   Wood      041291943928096Subaru Legacy1992
Bentonfort 9278Page      Thompson  032092131236083Land Rover LR1991
New Christi1373Whitehead Gilbert   032190255329048GMC 3500 Crew1992
Nancyview  3665Simpson   Hodge     052495000abc069Chevrolet Cor1991
North Bruce5621Howard    Rojas     102393953079035Audi A8      1995
Lake Caitli6900Day       Mccarthy  051394949250048Ford Fusion  1994
East Tiffan8445Garcia    Mccarty   080191824845017Mercedes-Benz1991
Lake Michel9382Terry     Montgomery082692460145050Chevrolet Mal1991
South Sarah2663Benjamin  Woods     041890701513063Nissan 200SX 1995
Wilsonshire3417Church    Rodriguez 090295012844025Chevrolet Exp1993
Lake Michel0079Brock     Floyd     061294920054061Toyota Highla1994
Port Taravi6765Brown     Cooper    052494081312031Ford F250 Sup1994
West Morgan3224Adkins    Guerrero  091391568171057Plymouth Voya1990
West Leah  1527Horn      Mcintosh  110890042251090Chevrolet Sil1995
Watsonstad 1055Curry     Davis     060993795868042MAZDA RX-8   1992
Schmidtton 9725Rivers    Dickerson 012691448437088Mitsubishi Ra1992
North Jeffr6931Garcia    Munoz     022494546277036Volvo XC90   1991
Levyview   8431Edwards   Farley    090695880055047Rolls-Royce D1992
Ashleymouth3442Olson     Watkins   011294275424002Ford Aerostar1993
Sanchezhave1505Chavez    Carney    903510283140092Chevrolet Sub1994
East Suzann9307Ramirez   Juarez    012193371837093Ford F350 Reg1990
East Kriste8301Sosa      Stewart   051994733315022Lexus GX     1994
Whitneyport1920Chan      Arias     110090225532027Ford Fiesta  1992
New Megan  6639          Waller    050295873042093Chevrolet 1501994
Lake Willia8774Foster    Walker    061991600997046Eagle Vision 1990
           6772Hill      Jones     040094797969056Jeep Compass 1994
Rojascheste0744Padilla   Stewart   101894168407078Nissan Altima1990
Vangville  6785Graves    Kline     112694167263017Volkswagen Go1991
Adrianport 0591Morales   Martinez  051491359800081Cadillac CTS 1990
Heathfort  4877Jordan    Torres    102791149156060Kia Stinger  1993
North Danie4544Smith     Salinas   021790010052026Buick Terraza1994
Port Kimber3666Lloyd     Hayes     031090186950068Porsche Cayma1991
South Leona2572Delacruz  Soto      040892943941028Chevrolet Sil0000
Jasonboroug7584Harris    White     092495462209093Cadillac Esca1992
North Chris2196Watson    Johnson   030894154072030GMC Savana 251994
Michaelmout5838Williams  Burns     asdfga287497035Hyundai Genes1991
New Amy    4691Smith     Craig     050695389242079Chevrolet Sil1994
New Kristin2423Caldwell  Davis     111993051687062Chevrolet Sub1993
Leeberg    6366Griffin   Ferguson  071892368195001Maserati Quat1993
Shawnaview 6295          Williams  092393177213093Audi A4      1991
West Sandra7984Smith     Gutierrez 110790377711046Mercedes-Benz1992
South Randy4279Santiago  Morgan    081495779382021Audi RS 3    1993
New Jennife9004Adkins    Shaw      092195209070088Chevrolet Tra1994
Shawland   6564Thomas    Wood      052492963051071Mercedes-Benz1993
Johnsonberg2811Johnson   Holmes    122493109621015Oldsmobile Cu1992
Sullivanton0063Kim       Powell    111991989401069FIAT 500     1990
New Christi9062Clark     Davis     092793394922092Ford F350 Reg1990
Carterbury 2464Russo     Kline     030090239129013Ford Transit 1995
Port Eddiet0185Silva     Williams  061890096592092Lotus Evora  1993
Robertaside9702Duran     Davis     092490677599022Mitsubishi Ou1994
Raymondfurt9087Smith     Lee       082893379285071Jeep Wrangler1990
Williamfort1343Clark     Jones     040691059749012Jeep Compass 1994
Lake Wandav7326Lloyd     Whitehead 120290684754087Dodge D150 Cl1990
Port Kather9235Sullivan  Hall      061195066328000Chrysler PT C1991
West Daniel9187Garcia    Gray      082392375874011BMW i3       1995
East Karla 3090West      Garrett   110695675454020Chevrolet Son1990
East Robert0000Chambers  Austin    011493837418003Lexus LS     1990
Nancyshire 1658Gibson    Lozano    062495167633096GMC Sierra 351995
Port Tracy 4159Baker     Short     070794102313038Chevrolet Mal1992
           7384Jones     Romero    062894471168001Acura RDX    1990
New Allison4550Cohen     Miller    081490493696038Volkswagen Pa1991
Bruceport  8284Hernandez Chen      120495443254087Pontiac Vibe 1994
Lake Jodi  1453Moon      Ross      090595279168061Toyota Camry 1990
East Heathe3293Wilson    Matthews  112391882657093Chevrolet S101993
Lake Kristi5845Parker    Smith     120395539645097Subaru Imprez1994
Port Ryan  4670Mays      Morton    012390662016050Saab 3-Sep   1992
New Jane   7399Price     Parker    070591128986006Chevrolet Upl1991
Cathyboroug3767Daugherty Pruitt    111693083684005Ford Windstar1991
Gregoryland7394Kelly               022394959097093FIAT 500e    1992
Adamsshire 4704Martin    Sawyer    060595086530090Mercury Grand1992
West Evelyn3030Harmon    Martinez  020291305693009Mercedes-Benz1991
North Thoma5648Roberts   Hernandez 060293439251027GMC Sierra 151994
Phelpsfort 1264          Booth     091692613343079Chevrolet Exp1994
South Kathr0678Howard    Morrison  030990000abc095Toyota Regula1992
Lake Michae1705Guerra    Jackson   082592136322025Hyundai Sonat1994
South Harol9476Kemp      Wright    080594835273054Mercedes-Benz1990
Kaylafort  0000Johnson   Guerrero  090393133294090Mercedes-Benz1993
Stephanieha4183Horton    Cardenas  021092226125023Chevrolet Exp1991
North Amy  8337Whitehead Smith     061492516464053Jaguar XJ    1994
Port Breann3044Atkinson  Massey    012690396406029Land Rover Di1991
New Pamela 8302Martin    Wilson    122194336252047Toyota Tundra1990
North Joe  4274Herrera   Bradshaw  042290399008020Aston Martin 1991
Port Robert1597Stevens   Garcia    080893963615041Ford Transit 1992
East Brentb9411Henderson Joseph    012691115539072Volvo 960    1992
Tammycheste7911Chen      Obrien    022395638559074Honda Civic  1995
Joystad    8584Thomas    Stone     102595530660021Land Rover Ra1990
Rosarioton 8557Juarez    Richards  031094667056058Ram 1500 Quad1991
New Samuelv2962Wells     White     031294916797038Daewoo Leganz1993
           7928Singleton Vasquez   060592914613076Dodge Caravan3359
New Scottbe7668Harris    Hampton   041590754970074Jaguar XK    1992
Johnsonside4928Clark     Gallagher 021592420528067Chevrolet Col1990
New Felicia6117Hernandez Munoz     111594350512051MAZDA Tribute1992
New Adamshi1783Payne     Moore     081593955855047Mercedes-Benz1992
Lake Wendyv7982Patterson Elliott   032792655690078Lincoln Town 1990
East Marvin1490Luna      Wright    021891280836042MAZDA MAZDA3 1990
North James0asdLee       Sanchez   040192840793033Cadillac Flee1995
Port Nicole4581Sanchez   Kennedy   100390018808065Plymouth Sund1994
Debbiehaven3035Higgins   Howell    012692415047062Oldsmobile 881992
Lake Edgarb5910Chase     Sanchez   100291661700037Ram 1500 Quad1992
Maryfurt   9291Jones     Wise      090995606397040MINI Hardtop 1993
Robertburgh0311Morgan    Roman     072592493013092Chevrolet Sil1992
Carlbury   4567Moore     Baker     021093000abc077Audi R8      1994
Pattersonsh7459Poole     Ellis     031491090790026Lincoln MKT  1994
Port Nicole0000Meyer     Sampson   030091692538069Volkswagen Je1992
Port Daniel0asdLeon      Hansen    051395591059044Pontiac G5   1994
           5476Garza     Jackson   021194736476059Volkswagen Je1992
North Brand4866Fritz     Reyes     070292147925056Ford E350 Sup1992
Wilsonville5096Bowen     Jones     060890007191084Chevrolet Exp1990
South Chris6956Ibarra    Murray    082493750150016GMC Savana 351994
New Pamela 0000Moore     Atkinson  051991042426017INFINITI QX701994
North There1140Gonzalez  Hunt      021391694276076Dodge Ram 1501991
Emilyburgh 8606Reynolds  Stanton   092092569472084Dodge Ram 1501995
Laurenville1503Dennis    Dawson    102091618106004GMC Sierra 351991
East Andrea1287MclaughlinHooper    011394192510057Chevrolet 3501990
Jonesside  7009Ferguson  Murphy    080990535011077Toyota Yaris 1993
Martinville9121Gill                072892611151045BMW X6       1995
East Jeremy8724Green     Woods     101594895644087Ford F250 Sup1993
Port Bianca1600Scott     Little    071090501806035GMC Sierra 251992
Kentview   1172Jones     Wolfe     120494025567096Oldsmobile Br1994
Walkerside 3002Harris    Hayes     011190292661066Lamborghini G1994
Perezville 3274Schultz   Howard    112194626443056GMC Sierra (C1994
Tylerfurt  3716Hawkins   Sherman   032592137896096Nissan Xterra0000
